:10000000D42900308A000408840A8207003453345B
:1000100074346134743469346F346E3461347234DE
:10002000793420342D34203446346C346F346F34BA
:100030007234203430340034003452346534613446
:10004000633468346534643420342D3420344634C9
:100050006C346F346F347234203420340034003404
:100060004D346F34763469346E34673420342D3433
:10007000203446346C346F346F347234203420347E
:040080000034003414
:1003A8000C30831384003330DB2183015E2A640020
:1003B8008001840A0406031900340406DC29831228
:1003C800B3008600051285156400831285110800A4
:1003D80085018601831686010E30051485140515DE
:1003E80085110512E3210130E329B500B600330871
:1003F800B30A84000120B4003608B60A8400340821
:1004080083138000800803190800FB29B500B60093
:100418003608B60A840083138008031D0C2A3508A1
:100428003602B300B401B31BB403FF30B307031C97
:10043800B4030800B701B8011A300A223408380298
:10044800031D282A330837020318080037081A3E04
:10045800840000088600051685156400831285113E
:10046800B70A0319B80A202A14031504031D402AE1
:10047800B301B30AB40108001408023A15040319B9
:100488003C2A1408033A1504031D4E2A0230B3000F
:10049800B40108001408043A150403193C2A140886
:1004A800053A150403194A2A1408063A1504031DC7
:1004B80008004A2AEC21FF3096019701980099001C
:1004C8000130B3001A30F9211E22E42234089500C5
:1004D8003308940015040319692A87223308C400D5
:1004E80044070C3E84003822330883138000840AB2
:1004F80034088000872234089900330898000130B6
:10050800E3211D23692A831214031504031D8F2A6E
:10051800B301B40108001408023A15040319992A12
:100528001408033A1504031D9D2AB301B30AB40144
:1005380008001408043A15040319A72A1408053AF0
:100548001504031DAB2A0230B300B40108001408D7
:10055800063A1504031D08000330B300B40108006F
:100568008722D8228313DE22382237083406031D57
:10057800BF2A36083306031908008722D822DE224C
:100588003608033A3704031908008722D82238228C
:1005980033088007840F00080318000ACF003408C6
:1005A8004F078000840308003308B50035070C3E68
:1005B800840008000008B600840A0008B700080094
:1005C800051C8518ED2A0519ED2AB301B30AB401F3
:1005D800080005188518F62A0519F62A0230B3000E
:1005E800B4010800051C851CFF2A0519FF2A0330E1
:1005F800B300B40108000518851C082B0519082B41
:100608000430B300B4010800051C8518112B051D22
:10061800112B0530B300B4010800051885181A2BF2
:10062800051D1A2B0630B300B4010800B301B4014C
:100638000800C201C30119081706031D252B180855
:1006480016060319D52B2A30B3001A30F9211A30AF
:100658000A223308193E84001608303E80001E2204
:1006680083124308803ACF008B304F02031D3E2B84
:10067800B9304202831203189F2BC20A0319C30A16
:10068800E422340895003308940015040319342B28
:10069800B4221708FA23031D532B180816028312D5
:1006A8000318792B0310F02338223A083406031D67
:1006B8005F2B390833060319652B0310E423031D48
:1006C800782B87221908803AB9003408803A390211
:1006D800031D702B330818020318782B872234085F
:1006E800990033089800342B83121908803AB9000E
:1006F8001708803A3902031D832B16081802831243
:100708000318352B0310F02338223A083406031D4A
:100718008F2B390833060319952B0310E423031D87
:10072800342B87223408FA23031D9C2B1808330224
:10073800031C722B342BC201C30116081802B9001E
:100748001708031C170A1902BA000030BA1B013037
:10075800BB00BC0116081802BD001708031C170AC5
:100768001902BE00803ACF0080304F02031DBE2B15
:1007780001303D020030031801308312BF003B08EE
:100788003F02C0003C090318013EC100160840079B
:10079800960017080318170A410797000130E3214C
:1007A8001F2B1730B3001A30F9211A300A223308E8
:1007B800193E84001808303E80001E220130E329CB
:1007C800180D0C3E84000008B900840A0008BA001D
:1007D8003908033A3A040800180D0C3E84008313C4
:1007E8000008B900840A0008BA000800803AB90075
:0807F8001908803A39020800DB
:02400E00F2FFBF
:00000001FF
