:020000000B28CB
:10000800CE00030E8312A6000A08A700472BEB2B8D
:10001800E830B2000330B300200837060130031976
:10002800C928D9232008303EA2000D306E230030A5
:100038006E233308320403199828FF30B207031CD3
:10004800B3034E22360A03192E283608073A031935
:100058002E28E52120081C3E840083133D21031827
:100068004E28803AAC003708803AAC020318422880
:1000780020081C3E8400000303194D28370831214D
:10008800200803187F281C3E84000008023A031D3C
:100098007E282008372103185B2820084222031CE9
:1000A8005B2820081C3E8400023080006D28370839
:1000B8003121200803186A281C3E84003D21031CB6
:1000C8006A281C3E84008001800A6D281C3E84003A
:1000D800800120084221D92301306E2300306E238D
:1000E80047210130D9232008303EA2000D306E236D
:1000F80000306E232008183E8400831380080319FB
:100108001D2820084221D92301306E2300306E2398
:100118002130AD007630AC00AC0B9028AD0B9028A8
:1001280064000130D9231928E830B2000330B30045
:1001380020083702AC00AD01031CAD03B71BAD03AB
:10014800A01BAD0A00308312AD1B0130AE002008A1
:100158003702AF00B001031CB003B71BB003A01BEC
:10016800B00A83123008803ACF0080304F02031D56
:10017800BF2801302F020030031801308312B1006C
:100188002E0831022007A0001028D9233708303E56
:10019800A20001306E2300306E233B10B701B70375
:1001A80020081C3E8400831380080319FD282008BA
:1001B800183E84008001472120081C3E84008313D8
:1001C80020081C3E0018F92884000008043A031D82
:1001D800F22820081C3E84000330800020081C3EC2
:1001E8008400FE308007A2231C29840080038C230E
:1001F8001C292008183E8400800803191C2920089F
:10020800183E8400000B0E292008183E8400800147
:10021800A22313292008183E840080018C23213052
:10022800AD007630AC00AC0B1729AD0B1729640074
:1002380083122008372103182629370A031926298B
:100248008C232E293708312103182E29370A031940
:100258002E29A223370F0800162B803AAC0020085D
:10026800803AAC020800803AAC003708803AAC0209
:1002780008000008803A7D3E20080800183E8400E7
:10028800013080010800C030D9233030AB01A20012
:1002980023306E2300306E234E223608073A0319A6
:1002A8007729360A0319502939082006031D7529AC
:1002B800361C6829360303196829AB08031D66290B
:1002C8000630AB00AB036F292B08053A031D6E29D6
:1002D800AB01AB03AB0A0130B7232B08303EA200B9
:1002E8004E29E52150292008200720070C3E210728
:1002F800AA0084002B08831380070930B723AB01B9
:10030800A008031D8929AB01AB0A2B08303EA200C7
:100318002C306E2300306E234E22360A03199029A2
:1003280039082006031DC529361CAE2936030319D2
:10033800AE29AB08031DA2290530AB00AB032B087F
:100348002006031DB929AB08031DAC290530AB00F5
:10035800AB03B9292B08043A031DB429AB01AB033D
:10036800AB0A2B0820060319AB0A0130B7232B0868
:10037800043A031DC1295830C3292B08303EA20076
:100388008E293608073A031DE1292B08043A031978
:10039800E3292B08183E840083138001800A2B0868
:1003A800803AAA002008803AAA02031890292B084C
:1003B800183E8400023080009029E52190290730FA
:1003C800B72B39081C3E840083130008380603192C
:1003D8000800390842220318080039081C3E840026
:1003E8000008023A031DFD2939081C3E8400033029
:1003F800800039081C3E8400380880073B1C072A07
:100408003908B7003B10370A0319080020084822AA
:1004180037080318262A1C3E8400000838060319EA
:100428001D2A3708422203181D2A3908033A031DDA
:10043800252A3708803AA8003908803AA802031C00
:100448003F2A3708803AA8002008803AA8020318F3
:10045800080037081C3E84000008380603193B2AA8
:100468003708422203183B2AB908031D0800390837
:100478004822031808003908B70008001C3E840009
:100488000008803A7D3E0800803AA8003708803A84
:10049800A8020800B601B603B901B903B801B80348
:1004A800051C85185C2A05195C2AB601B60A862A35
:1004B80005188518632A0519632A0230852A051C40
:1004C800851C6A2A05196A2A0330852A0518851C9D
:1004D800712A0519712A0430852A051C8518782A7D
:1004E800051D782A0530852A051885187F2A051DD7
:1004F8007F2A0630852A051C851C862A051D862A22
:100508000730B600360A03190800360B8E2AB901DF
:10051800B801B80A0530BA00A02A36083A06031D01
:100528009F2A3A0D3A0CB900B801B80A3A1CA22A17
:100538000230B800A22ABA033A0B912A3608063AC2
:10054800031D08000330B9000230B800080002306B
:100558008A000408840A82070034523465346134FE
:10056800633468343A34203446346C34723420347A
:1005780000344D346F34763465343A34203446349C
:100588006C34723420340034533474346F3470341F
:100598003A34203446346C347234203400345034C5
:1005A80065346F3470346C3465343A342034003434
:1005B80046346C34723473343A3420340034CB23E8
:1005C800B8308312A101B4000B30B500F6303B10EF
:1005D800A001B701B703BA004E22360A0319032B4C
:1005E8003608073A0319032B39081C3E84003808DB
:1005F80080003908B700032B0C20F630BA00370FFB
:10060800002B3A08F63A031D142BF730BA000130D4
:10061800D9232008303EA20018306E2300306E2304
:100628001623F02A03303B14B7000230BA00302BEF
:1006380037083F230008803AA9003A083A073A07E2
:100648000C3E2107AA0084000008803AA90203187A
:100658002F2B3A08B700BA033A0F1C2B37083F2351
:10066800800803193B2B20083706031D0800B70133
:10067800B7033B100800370737070C3E2107A800CF
:10068800840083130800FF30B407031CB503350842
:100698003404031D652BB830B4000B30B500A10A33
:1006A8002108033A0319A1010A30E2230D30A500FD
:1006B800FB30A400A40B5E2BA50B5E2B632B0E3026
:1006C800E2230B118B1727088A00260E8300CE0E13
:1006D8004E0E0900A80005168400AB220038031D41
:1006E800852B220886008515640083128511080071
:1006F80028088400AB2286008515640083128511C2
:10070800A80A28088400AB220038031908007C2BAB
:100718000330BA00BA1B08003A08183E8400831355
:100728008008031D9D2B3A081C3E8400800803198D
:10073800A02B3A08B7000800BA038E2B0330BA0082
:10074800BA1B08003A08183E840083138008031D6A
:10075800B32B3A081C3E840080080319B52B3A08CD
:10076800B700BA03A42BA9000430D9230516290819
:10077800BA00C52B203086008515640083128511C8
:10078800BA033A0FBE2B0630D9231430D92B850172
:10079800860183168601073085008312810108309F
:1007A800831681008B168B1708008312A800860019
:1007B8000512851564008312851108008312A300B1
:1007C80086000512851564008312851108000C3017
:1007D800831384002330F323BB018301E32A6400DD
:0E07E8008001840A0406031900340406F42B71
:02400E00F2FFBF
:00000001FF
