:020000000B28CB
:10000800CE00030E8312A6000A08A700482BEC2B8B
:10001800E830B2000330B300200837060130031976
:10002800C928DA232008303EA2000D306F230030A3
:100038006F233308320403199828FF30B207031CD2
:10004800B3034F22360A03192E283608073A031934
:100058002E28E52120081C3E840083133D21031827
:100068004E28803AAC003708803AAC020318422880
:1000780020081C3E8400000303194D28370831214D
:10008800200803187F281C3E84000008023A031D3C
:100098007E282008372103185B2820084322031CE8
:1000A8005B2820081C3E8400023080006D28370839
:1000B8003121200803186A281C3E84003D21031CB6
:1000C8006A281C3E84008001800A6D281C3E84003A
:1000D800800120084221DA2301306F2300306F238A
:1000E80047210130DA232008303EA2000D306F236B
:1000F80000306F232008183E8400831380080319FA
:100108001D2820084221DA2301306F2300306F2395
:100118002130AD007630AC00AC0B9028AD0B9028A8
:1001280064000130DA231928E830B2000330B30044
:1001380020083702AC00AD01031CAD03B71BAD03AB
:10014800A01BAD0A00308312AD1B0130AE002008A1
:100158003702AF00B001031CB003B71BB003A01BEC
:10016800B00A83123008803ACF0080304F02031D56
:10017800BF2801302F020030031801308312B1006C
:100188002E0831022007A0001028DA233708303E55
:10019800A20001306F2300306F233B10B701B70373
:1001A80020081C3E8400831380080319FD282008BA
:1001B800183E84008001472120081C3E84008313D8
:1001C80020081C3E0018F92884000008043A031D82
:1001D800F22820081C3E84000330800020081C3EC2
:1001E8008400FE308007A3231C29840080038D230C
:1001F8001C292008183E8400800803191C2920089F
:10020800183E8400000B0E292008183E8400800147
:10021800A32313292008183E840080018D23213050
:10022800AD007630AC00AC0B1729AD0B1729640074
:1002380083122008372103182629370A031926298B
:100248008D232E293708312103182E29370A03193F
:100258002E29A323370F0800172B803AAC0020085B
:10026800803AAC020800803AAC003708803AAC0209
:1002780008000008803A7D3E20080800183E8400E7
:10028800013080010800C030DA233030AB01A20011
:1002980023306F2300306F234F223608073A0319A3
:1002A8007729360A0319502939082006031D7529AC
:1002B800361C6829360303196829AB08031D66290B
:1002C8000630AB00AB036F292B08053A031D6E29D6
:1002D800AB01AB03AB0A0130B8232B08303EA200B8
:1002E8004E29E52150292008200720070C3E210728
:1002F800AA0084002B08831380070930B823AB01B8
:10030800A008031D8929AB01AB0A2B08303EA200C7
:100318002C306F2300306F234F22360A031990299F
:1003280039082006031DC529361CAE2936030319D2
:10033800AE29AB08031DA2290530AB00AB032B087F
:100348002006031DB929AB08031DAC290530AB00F5
:10035800AB03B9292B08043A031DB429AB01AB033D
:10036800AB0A2B0820060319AB0A0130B8232B0867
:10037800043A031DC1295830C3292B08303EA20076
:100388008E293608073A031DE1292B08043A031978
:10039800E3292B08183E840083138001800A2B0868
:1003A800803AAA002008803AAA02031890292B084C
:1003B800183E8400023080009029E52190290730FA
:1003C800B82B39081C3E840083130008380603192B
:1003D8000800390843220318080039081C3E840025
:1003E8000008023A031DFD2939081C3E8400033029
:1003F800800039081C3E8400380880073B1C082A06
:100408003908B7003B100800370A0319080020080C
:10041800492237080318272A1C3E8400000838069A
:1004280003191E2A3708432203181E2A3908033ADB
:10043800031D262A3708803AA8003908803AA802FE
:10044800031C402A3708803AA8002008803AA802EE
:100458000318080037081C3E8400000838060319F2
:100468003C2A3708432203183C2AB908031D080010
:1004780039084922031808003908B70008001C3E4B
:1004880084000008803A7D3E0800803AA8003708BA
:10049800803AA8020800B601B603B901B903B80149
:1004A800B803051C85185D2A05195D2AB601B60A28
:1004B800872A05188518642A0519642A0230862AAD
:1004C800051C851C6B2A05196B2A0330862A05181A
:1004D800851C722A0519722A0430862A051C85187B
:1004E800792A051D792A0530862A05188518802A53
:1004F800051D802A0630862A051C851C872A051DAD
:10050800872A0730B600360A03190800360B8F2AE7
:10051800B901B801B80A0530BA00A12A36083A0666
:10052800031DA02A3A0D3A0CB900B801B80A3A1CC2
:10053800A32A0230B800A32ABA033A0B922A360833
:10054800063A031D08000330B9000230B80008005D
:1005580002308A000408840A820700345234653461
:100568006134633468343A34203446346C34723439
:10057800203400344D346F34763465343A342034C2
:1005880046346C34723420340034533474346F3449
:1005980070343A34203446346C34723420340034A5
:1005A800503465346F3470346C3465343A342034E4
:1005B800003446346C34723473343A3420340034A2
:1005C800CC23B8308312A101B4000B30B500F6304B
:1005D8003B10A001B701B703BA004F22360A03192E
:1005E800042B3608073A0319042B39081C3E8400EB
:1005F800380880003908B700042B0C20F630BA0000
:10060800370F012B3A08F63A031D152BF730BA00BD
:100618000130DA232008303EA20018306F23003062
:100628006F231723F12A03303B14B7000230BA00B6
:10063800312B370840230008803AA9003A083A07C6
:100648003A070C3E2107AA0084000008803AA90254
:100658000318302B3A08B700BA033A0F1D2B370896
:100668004023800803193C2B20083706031D080087
:10067800B701B7033B100800370737070C3E2107BF
:10068800A800840083130800FF30B407031CB503D7
:1006980035083404031D662BB830B4000B30B500A0
:1006A800A10A2108033A0319A1010A30E3230D30F6
:1006B800A500FB30A400A40B5F2BA50B5F2B642BBC
:1006C8000E30E3230B118B1727088A00260E8300B0
:1006D800CE0E4E0E0900A80005168400AC22003884
:1006E800031D862B22088600851564008312851158
:1006F800080028088400AC2286008515640083124F
:100708008511A80A28088400AC22003803190800BB
:100718007D2B0330BA00BA1B08003A08183E840043
:1007280083138008031D9E2B3A081C3E8400800812
:100738000319A12B3A08B7000800BA038F2B03301E
:10074800BA00BA1B08003A08183E840083138008D0
:10075800031DB42B3A081C3E840080080319B62BED
:100768003A08B700BA03A52BA9000430DA23051606
:100778002908BA00C62B203086008515640083122C
:100788008511BA033A0FBF2B0630DA231430DA2B5F
:100798008501860183168601073085008312810151
:1007A8000830831681008B168B1708008312A80067
:1007B80086000512851564008312851108008312CE
:1007C800A3008600051285156400831285110800B0
:1007D8000C30831384002330F423BB018301E42A03
:1007E80064008001840A0406031900340406F52B0A
:02400E00F2FFBF
:00000001FF
